:020000040800F2
:10000000402000200D080008E5070008E707000869
:10001000E9070008EB070008ED07000800000000F2
:10002000000000000000000000000000EF070008D2
:10003000F107000800000000F3070008F5070008BA
:1000400035080008390800083D0800084108000884
:1000500045080008490800084D0800085108000834
:1000600055080008590800085D08000861080008E4
:1000700065080008690800086D0800087108000894
:1000800075080008790800087D0800088108000844
:1000900085080008890800088D08000891080008F4
:1000A00095080008990800089D080008A1080008A4
:1000B000A5080008A9080008AD080008B108000854
:1000C000B5080008B9080008BD080008C108000804
:1000D000C5080008C9080008CD080008D1080008B4
:1000E000D5080008D9080008DD080008E108000864
:1000F000E5080008E9080008ED080008F108000814
:10010000F5080008F9080008FD08000801090008C2
:1001100005090008090900080D090008110900086F
:1001200015090008190900081D090008210900081F
:1001300025090008290900082D09000831090008CF
:1001400035090008390900083D090008410900087F
:1001500045090008490900084D090008510900082F
:1001600055090008590900085D09000861090008DF
:1001700065090008690900086D090008710900088F
:1001800075090008790900087D090008810900083F
:1001900085090008890900088D09000891090008EF
:1001A00095090008990900089D090008020052B24B
:1001B000002A04D40901564A40B2115407E009014B
:1001C000544A40B210F00F00104400F8041C70476D
:1001D00080B5411EB1F1807F01D301200EE0401EA9
:1001E0004D4908600F215FF0FF30FFF7DFFF00206F
:1001F0004A49086007204A490860002002BD494971
:10020000086008680028FCD1704746490868002843
:1002100002D00868401E0860704770B500F086F88C
:100220004148006842F21071B0FBF1F0FFF7D0FFD7
:10023000002800D0FEE700F085F800F0CDF800F0CF
:10024000E0F8002608E03000C0B200F087F8300087
:10025000C0B200F0B4F8761C3000C0B20828F2DB5F
:1002600040F6C410FFF7CBFF00F0F5F8002825D0CA
:10027000022801D016D328E02000441CC0B2C0F3ED
:100280004100C0B2002805D0022807D004D30328BB
:1002900006D006E0552504E05A2502E0AA2500E034
:1002A000A52513E02000C0B2641C0821012290FBA8
:1002B000F1F501FB150512FA05F507E02500EDB291
:1002C0006D0815F00105641C00E0002500F0B6F88B
:1002D000002802D0012801D003E003E0EDB2ED4395
:1002E00000E0002500263000C0B20828B8DA01205E
:1002F000B0402900C9B2014204D13000C0B200F0C0
:100300005EF803E03000C0B200F04CF8761CEAE77B
:1003100000E400E018ED00E014E000E018E000E088
:1003200010E000E03400002030000020044908689C
:10033000002800D172B60868401C0860704700BFF2
:100340003800002004480168491E01600068002848
:1003500000D162B6704700BF380000201CB5040011
:10036000012150482200D2B250F8220000F0ACF82F
:100370004D482100C9B230F81100009001208DF8DD
:10038000040000208DF8060001208DF807000220EF
:100390008DF8050069464548E4B250F8240000F0A5
:1003A000A3F813BD80B540490200D2B231F8121053
:1003B0003E4AC0B252F8200000F0F6F801BD80B508
:1003C00039490200D2B231F81210384AC0B252F89C
:1003D000200000F0E7F801BDE0B5012134480068D5
:1003E00000F072F800208DF8040000208DF807005E
:1003F00030480088009069462F48006800F074F883
:1004000007BD1CB5002416E001212C4850F824003B
:1004100000F05AF800208DF8040000208DF8070045
:10042000274830F8140000906946264850F8240008
:1004300000F05AF8641C032CE6DB13BD80B51D48A0
:1004400001881D48006800F0A3F8002801D10120B0
:1004500000E0002002BD38B5002400250FE0012097
:100460000AE0174830F81510164850F8250000F03B
:100470008FF80028F3D00020A84004436D1C032D02
:10048000EFDBE4B2012C04D0022C04D0042C04D005
:1004900005E0002004E0012002E0022000E003204B
:1004A00032BD000060070008FC07000800000020C3
:1004B00030080008FE0600082C0000201C08000878
:1004C0002808000820000020C9B2002904D00549EE
:1004D0000A681043086004E002490A6832EA000032
:1004E0000860704730380240F0B400220022002239
:1004F000002349E0012414FA03F20D6815409542E7
:1005000041D1032502681E00F6B2760015FA06F600
:10051000B243026006680F791A00D2B252009740C7
:100520003E4306600A79012A02D00A79022A1AD1CA
:1005300082681E00F6B2760015FA06F6B2438260B3
:1005400086684F791A00D2B2520097403E438660C7
:1005500042689C4032EA0404446042688C799C40C2
:10056000A4B222434260C4681A00D2B2520095403D
:1005700034EA0505C560C468CD791A00D2B25200CC
:1005800095402C43C4605B1C102BB3D3F0BC704768
:100590000022006989B2084201D0012000E0002059
:1005A000C0B27047018370474183704780B53C48B3
:1005B000016851F4700101603A49086850F0010087
:1005C00008600020384A10600A68384802400A6013
:1005D0003748384A1060086830F4802008600020EE
:1005E0003549086000F005F85FF0006033490860A5
:1005F00001BD82B0002001900020009029490868C8
:1006000050F480300860086810F4003000900198C1
:10061000401C01900098002803D10198B0F5A06F0C
:10062000F1D10868800302D50120009001E000208C
:100630000090009801282FD12148026852F0805282
:1006400002602048026852F4404202601648026884
:100650000260026852F400420260026852F4A05242
:100660000260194A134B1A600A6852F080720A60DD
:100670000A689201FCD540F20571144A11600168C4
:10068000890889000160016851F002010160016878
:1006900011F00C010829FAD102B0704700000000E7
:1006A00088ED00E00038024008380240FFFFF6FE07
:1006B00010300024043802400C38024008ED00E0FD
:1006C000403802400070004008544007003C02409F
:1006D00030B40EE00268436802440830DC0744BFCF
:1006E000A9F10104E31852F8045B43F8045B091F05
:1006F000F9D150F8041B0029ECD130BC7047000838
:1007000010B5074979441831064C7C44163404E08E
:100710000A68081D114488470146A142F8D110BD5E
:100720002C0000003C0000004EF68851CEF2000183
:10073000086840F470000860BFF34F8FBFF36F8FFD
:100740004FF00070E1EE100A7047000085FFFFFFD8
:100750003C0000004C0200000000002000000000EF
:100760000100000008000000080000000800000070
:100770000800000008000000080000000800000059
:1007800000F00DF8002801D0FFF7BAFFAFF30080AA
:100790000020AFF30080FFF740FD00F002F80120D9
:1007A000704700F001B800000746384600F002F834
:1007B000FBE7000080B5AFF30080024A110018206B
:1007C000ABBEFBE7260002000548014603B46846BD
:1007D00080F30988AFF30080FFF7A6FFFFF7D0FF93
:1007E000A5EDF5FE7047FEE7FEE7FEE7FEE7704782
:1007F0007047704780B5FFF708FD01BD100010007D
:1008000020004000800000080010002001488047C0
:1008100001480047AD050008C907000800010000B5
:1008200000010000000100000001000200040000BF
:1008300000010000FFF7FEBFFFF7FEBFFFF7FEBF9E
:10084000FFF7FEBFFFF7FEBFFFF7FEBFFFF7FEBFDC
:10085000FFF7FEBFFFF7FEBFFFF7FEBFFFF7FEBFCC
:10086000FFF7FEBFFFF7FEBFFFF7FEBFFFF7FEBFBC
:10087000FFF7FEBFFFF7FEBFFFF7FEBFFFF7FEBFAC
:10088000FFF7FEBFFFF7FEBFFFF7FEBFFFF7FEBF9C
:10089000FFF7FEBFFFF7FEBFFFF7FEBFFFF7FEBF8C
:1008A000FFF7FEBFFFF7FEBFFFF7FEBFFFF7FEBF7C
:1008B000FFF7FEBFFFF7FEBFFFF7FEBFFFF7FEBF6C
:1008C000FFF7FEBFFFF7FEBFFFF7FEBFFFF7FEBF5C
:1008D000FFF7FEBFFFF7FEBFFFF7FEBFFFF7FEBF4C
:1008E000FFF7FEBFFFF7FEBFFFF7FEBFFFF7FEBF3C
:1008F000FFF7FEBFFFF7FEBFFFF7FEBFFFF7FEBF2C
:10090000FFF7FEBFFFF7FEBFFFF7FEBFFFF7FEBF1B
:10091000FFF7FEBFFFF7FEBFFFF7FEBFFFF7FEBF0B
:10092000FFF7FEBFFFF7FEBFFFF7FEBFFFF7FEBFFB
:10093000FFF7FEBFFFF7FEBFFFF7FEBFFFF7FEBFEB
:10094000FFF7FEBFFFF7FEBFFFF7FEBFFFF7FEBFDB
:10095000FFF7FEBFFFF7FEBFFFF7FEBFFFF7FEBFCB
:10096000FFF7FEBFFFF7FEBFFFF7FEBFFFF7FEBFBB
:10097000FFF7FEBFFFF7FEBFFFF7FEBFFFF7FEBFAB
:10098000FFF7FEBFFFF7FEBFFFF7FEBFFFF7FEBF9B
:10099000FFF7FEBFFFF7FEBFFFF7FEBFFFF7FEBF8B
:1009A00000000240000C0240000C0240000C02401B
:1009B000000C0240000C0240000C0240000C0240FF
:1009C000002002400020024000200240002002409F
:0C09D000007A030A000000000000000094
:04000005080007C91F
:00000001FF
